{
  "contractName": "Administrable",
  "abi": [
    {
      "constant": true,
      "inputs": [
        {
          "name": "",
          "type": "address"
        }
      ],
      "name": "isAdmin",
      "outputs": [
        {
          "name": "",
          "type": "bool"
        }
      ],
      "payable": false,
      "stateMutability": "view",
      "type": "function"
    },
    {
      "inputs": [
        {
          "name": "_admins",
          "type": "address[]"
        }
      ],
      "payable": false,
      "stateMutability": "nonpayable",
      "type": "constructor"
    }
  ],
  "bytecode": "0x608060405234801561001057600080fd5b506040516103973803806103978339810180604052602081101561003357600080fd5b81019080805164010000000081111561004b57600080fd5b8281019050602081018481111561006157600080fd5b815185602082028301116401000000008211171561007e57600080fd5b5050929190505050336000806101000a81548173ffffffffffffffffffffffffffffffffffffffff021916908373ffffffffffffffffffffffffffffffffffffffff16021790555060008090505b81518110156101515760016002600084848151811015156100e957fe5b9060200190602002015173ffffffffffffffffffffffffffffffffffffffff1673ffffffffffffffffffffffffffffffffffffffff16815260200190815260200160002060006101000a81548160ff02191690831515021790555080806001019150506100cc565b506001600260003373ffffffffffffffffffffffffffffffffffffffff1673ffffffffffffffffffffffffffffffffffffffff16815260200190815260200160002060006101000a81548160ff02191690831515021790555080600190805190602001906101c09291906101c7565b5050610294565b828054828255906000526020600020908101928215610240579160200282015b8281111561023f5782518260006101000a81548173ffffffffffffffffffffffffffffffffffffffff021916908373ffffffffffffffffffffffffffffffffffffffff160217905550916020019190600101906101e7565b5b50905061024d9190610251565b5090565b61029191905b8082111561028d57600081816101000a81549073ffffffffffffffffffffffffffffffffffffffff021916905550600101610257565b5090565b90565b60f5806102a26000396000f3fe608060405260043610603f576000357c0100000000000000000000000000000000000000000000000000000000900463ffffffff16806324d7806c146044575b600080fd5b348015604f57600080fd5b50608f60048036036020811015606457600080fd5b81019080803573ffffffffffffffffffffffffffffffffffffffff16906020019092919050505060a9565b604051808215151515815260200191505060405180910390f35b60026020528060005260406000206000915054906101000a900460ff168156fea165627a7a72305820082d9040f5745f0c468f3a7608ea8ad3963bd77ec32a0ca458268ca1d2fef9580029",
  "source": "pragma solidity ^0.5.0;\n\ncontract Administrable {\n  address private owner;\n  address[] private admins;\n  mapping (address => bool) public isAdmin;\n\n  constructor(address[] memory _admins) public {\n    owner = msg.sender;\n    for (uint i = 0; i < _admins.length; i++) {\n        isAdmin[_admins[i]] = true;\n    }\n\n    isAdmin[msg.sender] = true;\n    admins = _admins;\n  }\n\n  modifier onlyOwner() {\n    require(msg.sender == owner, 'only owner can perform this operation');\n    _;\n  }\n\n  modifier onlyAdmin() {\n      require(isAdmin[msg.sender]);\n      _;\n  }\n}\n",
  "sourcePath": "/home/vagrant/project/contracts/Administrable.sol",
  "compiler": {
    "name": "solc",
    "version": "0.5.0+commit.1d4f565a.Emscripten.clang"
  },
  "schemaVersion": "3.0.1",
  "updatedAt": "2019-01-25T15:54:41.154Z",
  "devdoc": {
    "methods": {}
  },
  "userdoc": {
    "methods": {}
  }
}