{
  "contractName": "EmergencyStoppable",
  "abi": [
    {
      "inputs": [
        {
          "name": "stoppers",
          "type": "address[]"
        }
      ],
      "payable": false,
      "stateMutability": "nonpayable",
      "type": "constructor",
      "signature": "constructor"
    },
    {
      "constant": false,
      "inputs": [],
      "name": "stop",
      "outputs": [],
      "payable": false,
      "stateMutability": "nonpayable",
      "type": "function",
      "signature": "0x07da68f5"
    },
    {
      "constant": false,
      "inputs": [],
      "name": "start",
      "outputs": [],
      "payable": false,
      "stateMutability": "nonpayable",
      "type": "function",
      "signature": "0xbe9a6555"
    }
  ],
  "bytecode": "0x608060405260008060006101000a81548160ff02191690831515021790555034801561002a57600080fd5b506040516104513803806104518339810180604052602081101561004d57600080fd5b81019080805164010000000081111561006557600080fd5b8281019050602081018481111561007b57600080fd5b815185602082028301116401000000008211171561009857600080fd5b505092919050505060008090505b815181101561012a57600180600084848151811015156100c257fe5b9060200190602002015173ffffffffffffffffffffffffffffffffffffffff1673ffffffffffffffffffffffffffffffffffffffff16815260200190815260200160002060006101000a81548160ff02191690831515021790555080806001019150506100a6565b5060018060003373ffffffffffffffffffffffffffffffffffffffff1673ffffffffffffffffffffffffffffffffffffffff16815260200190815260200160002060006101000a81548160ff021916908315150217905550506102bf806101926000396000f3fe60806040526004361061004c576000357c0100000000000000000000000000000000000000000000000000000000900463ffffffff16806307da68f514610051578063be9a655514610068575b600080fd5b34801561005d57600080fd5b5061006661007f565b005b34801561007457600080fd5b5061007d610189565b005b60011515600160003373ffffffffffffffffffffffffffffffffffffffff1673ffffffffffffffffffffffffffffffffffffffff16815260200190815260200160002060009054906101000a900460ff16151514151561016d576040517f08c379a00000000000000000000000000000000000000000000000000000000081526004018080602001828103825260328152602001807f6f6e6c79206175746f72697a65642073746f70706572732063616e207065726681526020017f6f726d2074686973206f7065726174696f6e000000000000000000000000000081525060400191505060405180910390fd5b60016000806101000a81548160ff021916908315150217905550565b60011515600160003373ffffffffffffffffffffffffffffffffffffffff1673ffffffffffffffffffffffffffffffffffffffff16815260200190815260200160002060009054906101000a900460ff161515141515610277576040517f08c379a00000000000000000000000000000000000000000000000000000000081526004018080602001828103825260328152602001807f6f6e6c79206175746f72697a65642073746f70706572732063616e207065726681526020017f6f726d2074686973206f7065726174696f6e000000000000000000000000000081525060400191505060405180910390fd5b60008060006101000a81548160ff02191690831515021790555056fea165627a7a7230582060f6fcde0ae2a68aa7437e33a4e1b57a04c7fa096c2b3da15133ef3650ce08100029",
  "source": "pragma solidity ^0.5.0;\n\ncontract Administrable {\n    address private owner;\n    address[] private admins;\n    mapping(address => bool) public isAdmin;\n\n    /**\n     * Constructor of the contract\n     * @param _admins addresses of accounts allowed to administrate the contract\n     */\n    constructor(address[] memory _admins) public {\n        owner = msg.sender;\n        for (uint i = 0; i < _admins.length; i++) {\n            isAdmin[_admins[i]] = true;\n        }\n\n        isAdmin[msg.sender] = true;\n        admins = _admins;\n    }\n\n    /**\n     * Require sender to be the owner of the contract to continue the execution\n     */\n    modifier onlyOwner() {\n        require(msg.sender == owner, \"only owner can perform this operation\");\n        _;\n    }\n\n    /**\n     * Require sender to be an admin of the contract to continue the execution\n     */\n    modifier onlyAdmin() {\n        require(\n            isAdmin[msg.sender],\n            \"only a valid admin can perform this operation\"\n        );\n        _;\n    }\n}\n\ncontract EmergencyStoppable {\n    bool private stopped = false;\n    mapping(address => bool) private isStopper;\n\n    /**\n     * Constructor of the contract\n     * @param stoppers allowed accounts to stop/start the contract\n     */\n    constructor(address[] memory stoppers) public {\n        for (uint i = 0; i < stoppers.length; i++) {\n            isStopper[stoppers[i]] = true;\n        }\n\n        isStopper[msg.sender] = true;\n    }\n\n    /**\n     * Require only an allowed address to perform an action\n     */\n    modifier onlyStopper() {\n        require(\n          isStopper[msg.sender] == true,\n          \"only autorized stoppers can perform this operation\"\n        );\n        _;\n    }\n\n    /**\n     * This modifier requires that the contract IS NOT STOPPED to continue\n     * the execution of the function\n     */\n    modifier stopInEmergency {\n        require(\n          !stopped,\n          \"This action cant be performed at the moment\"\n        );\n        _;\n    }\n\n    /**\n     * This modifier requires that the contract IS STOPPED to continue\n     * the execution of the function\n     */\n    modifier onlyInEmergency {\n        require(stopped, \"This action can only be performed in an emergency\");\n        _;\n    }\n\n    /**\n     * Stops the contract. Only functions not required to be stopped in\n     * emergency can continue the execution\n     */\n    function stop() onlyStopper public {\n        stopped = true;\n    }\n\n    /**\n     * Starts the contract. All functions but required to execute only in\n     * emergency continue the execution\n     */\n    function start() onlyStopper public {\n        stopped = false;\n    }\n}\n\ncontract Marketplace is Administrable, EmergencyStoppable {\n    mapping(address => bool) public storeOwners;\n    mapping(address => uint[]) public ownerStorefrontIds;\n    mapping(address => uint) private balances;\n\n    struct Storefront {\n        uint id;\n        string name;\n        address storeOwner;\n        uint[] skus;\n    }\n    uint private storefrontsCount;\n    mapping(uint => Storefront) private storefronts;\n\n    struct Product {\n        uint sku;\n        string name;\n        uint count;\n        uint price;\n        uint storefrontId;\n        uint indexInStorefront;\n    }\n    uint private skuCount;\n    mapping(uint => Product) private products;\n\n    /**\n     * Constructor of the contract\n     * @param _admins addresses of the admins of the Marketplace contract\n     */\n    constructor(address[] memory _admins)\n        Administrable(_admins)\n        EmergencyStoppable(_admins)\n        public\n    {\n\n    }\n\n    modifier onlyActiveOwner() {\n        require(storeOwners[msg.sender]);\n        _;\n    }\n\n    /**\n     * Adds a new storefront owner\n     * @param storeOwner the address of the new store owner\n     */\n    function addStoreOwner(address storeOwner) external onlyAdmin {\n        require(!storeOwners[storeOwner], \"Owner already exists\");\n\n        storeOwners[storeOwner] = true;\n    }\n\n    /**\n     * Adds a new storefront\n     * @param name the name of the new storefront\n     * @return the ID of the new storefront\n     */\n    function addStorefront(string calldata name)\n        external\n        onlyActiveOwner\n        returns (uint)\n    {\n        require(\n            storefrontsCount != ((2**256) - 1),\n            \"No more storefronts can be added\"\n        );\n\n        storefrontsCount++;\n        ownerStorefrontIds[msg.sender].push(storefrontsCount);\n        storefronts[storefrontsCount].id = storefrontsCount;\n        storefronts[storefrontsCount].name = name;\n        storefronts[storefrontsCount].storeOwner = msg.sender;\n\n        return storefrontsCount;\n    }\n\n    /**\n     * Gets storefront ID, name and list of product SKUs\n     * @param _id the ID of the storefront information to retrieve\n     * @return ID, name and SKU array of the storefront\n     */\n    function getStorefront(uint _id)\n        external\n        view\n        returns (uint id, string memory name, uint[] memory skus)\n    {\n        id = storefronts[_id].id;\n        name = storefronts[_id].name;\n        skus = storefronts[_id].skus;\n    }\n\n    /**\n     * Gets the amount of storefronts owned by an store owner\n     * @param storeOwner the address of the store owner count required\n     * @return the amount of storefronts of the specified store owner\n     */\n    function getOwnerStorefrontCount(address storeOwner)\n        external\n        view\n        returns (uint)\n    {\n        return ownerStorefrontIds[storeOwner].length;\n    }\n\n    /**\n     * @return the total amount of all storefronts of all owners\n     */\n    function getStorefrontCount() external view returns (uint) {\n        return storefrontsCount;\n    }\n\n    /**\n     * Adds a new product to a storefront\n     * @param _storefrontId the storefront where to add the product\n     * @param name name of the new product\n     * @param count amount of available products\n     * @param price cost in Wei of the product\n     * @return the ID of the new product\n     */\n    function addProduct(\n        uint _storefrontId,\n        string calldata name,\n        uint count,\n        uint price\n    )\n        external\n        onlyActiveOwner\n        returns (uint)\n    {\n        require(storefronts[_storefrontId].storeOwner == msg.sender);\n        require(price > 0);\n        require(\n            skuCount != ((2**256) - 1),\n            \"No more products can be added\"\n        );\n\n        skuCount++;\n\n        products[skuCount].storefrontId = _storefrontId;\n        products[skuCount].sku = skuCount;\n        products[skuCount].name = name;\n        products[skuCount].price = price;\n        products[skuCount].count = count;\n        products[skuCount].indexInStorefront = storefronts[_storefrontId].skus.push(skuCount) - 1;\n\n        return skuCount;\n    }\n\n    /**\n     * Gets the details of a product\n     * @param _sku the SKU of the product required\n     * @return SKU, name, price and storefront ID of the product\n     */\n    function getProduct(uint _sku)\n        external\n        view\n        returns (\n            uint sku,\n            string memory name,\n            uint price,\n            uint count,\n            uint storefrontId\n        )\n    {\n        require(products[_sku].sku != 0, \"Product does not exist\");\n        sku = products[_sku].sku;\n        name = products[_sku].name;\n        price = products[_sku].price;\n        count = products[_sku].count;\n        storefrontId = products[_sku].storefrontId;\n    }\n\n    /**\n     * Deletes a product\n     * @param _sku the SKU of the product to remove\n     */\n    function deleteProduct(uint _sku) external onlyActiveOwner {\n        require(\n            storefronts[products[_sku].storefrontId].storeOwner == msg.sender\n        );\n\n        // Storefront of the product to delete\n        uint storefrontId = products[_sku].storefrontId;\n        // Index of the product to delete in storefront's SKUs array\n        uint index = products[_sku].indexInStorefront;\n        // Length of the storefront's SKU array\n        uint skusLength = storefronts[storefrontId].skus.length;\n\n        require(skusLength > 0, \"Storefront's SKU list is invalid\");\n\n        // For the array of SKUs in storefront we need to move the last element\n        // of the array to the index of the product beign removed\n        uint lastProductIndex;\n        uint lastProductSku;\n        if (skusLength > 1) {\n            // Get the last product index\n            lastProductIndex = storefronts[storefrontId].skus[skusLength - 1];\n            // Copy it to the index of the product that is being removed\n            // from the storefront\n            storefronts[storefrontId].skus[index] = lastProductIndex;\n            // Get the replacing product SKU\n            lastProductSku = storefronts[storefrontId].skus[index];\n            // Update products indexInStorefront to its new index in storefornt\n            // SKUs array\n            products[lastProductSku].indexInStorefront = index;\n        }\n\n        // Delete preduct from mapping\n        delete products[_sku];\n        // Remove last product index (already moved to its new place) by\n        // decrementing storefront SKUs array length by one\n        storefronts[storefrontId].skus.length--;\n    }\n\n    /**\n     * Updates product price\n     * @param _sku the SKU of the product to update\n     * @param price the new price of the product\n     */\n    function updateProductPrice(uint _sku, uint price)\n        external\n        onlyActiveOwner\n    {\n        require(\n            storefronts[products[_sku].storefrontId].storeOwner == msg.sender\n        );\n\n        products[_sku].price = price;\n    }\n\n    /**\n     * Updates product count\n     * @param _sku the SKU of the product to update\n     * @param count the new count of the product\n     */\n    function updateProductCount(uint _sku, uint count)\n        external\n        onlyActiveOwner\n    {\n        require(\n            storefronts[products[_sku].storefrontId].storeOwner == msg.sender\n        );\n\n        products[_sku].count = count;\n    }\n\n    /**\n     * Buy a product, incremente store owner's balance by price and quantity,\n     * decrement products count by quantity\n     * @param _sku the SKU of the product being bought\n     * @param quantity the desired amount of the product\n     */\n    function buyProduct(uint _sku, uint quantity)\n        external\n        payable\n        stopInEmergency\n    {\n        require(quantity > 0);\n        require(products[_sku].count >= quantity);\n        require(products[_sku].price * quantity <= msg.value);\n\n        Product memory product = products[_sku];\n        Storefront memory storefront = storefronts[product.storefrontId];\n\n        balances[storefront.storeOwner] += products[_sku].price * quantity;\n        products[_sku].count -= quantity;\n\n        uint toRefund = msg.value - products[_sku].price * quantity;\n        if (toRefund > 0) {\n          msg.sender.transfer(toRefund);\n        }\n    }\n\n    /**\n     * Get the balance of the sender (it has to be a store owner)\n     * @return the balance of the sender\n     */\n    function balance() external view onlyActiveOwner returns(uint) {\n        return balances[msg.sender];\n    }\n\n    /**\n     * Withdraw an amount of ether from it's balance (it has to be a store owner)\n     * @param amount the amount of ether in Wei to withdraw\n     */\n    function withdraw(uint amount) external onlyActiveOwner stopInEmergency {\n        require(\n            amount <= balances[msg.sender],\n            \"You dont have enough founds to perform this operation\"\n        );\n\n        balances[msg.sender] -= amount;\n        msg.sender.transfer(amount);\n    }\n}\n",
  "sourcePath": "/home/vagrant/project/contracts/Marketplace.sol",
  "compiler": {
    "name": "solc",
    "version": "0.5.0+commit.1d4f565a.Emscripten.clang"
  },
  "schemaVersion": "3.0.1",
  "updatedAt": "2019-01-27T16:30:29.663Z",
  "devdoc": {
    "methods": {
      "constructor": {
        "params": {
          "stoppers": "allowed accounts to stop/start the contract"
        }
      }
    }
  },
  "userdoc": {
    "methods": {
      "constructor": "Constructor of the contract",
      "start()": {
        "notice": "Starts the contract. All functions but required to execute only in emergency continue the execution"
      },
      "stop()": {
        "notice": "Stops the contract. Only functions not required to be stopped in emergency can continue the execution"
      }
    }
  }
}