{
  "contractName": "EmergencyStoppable",
  "abi": [
    {
      "inputs": [
        {
          "name": "stoppers",
          "type": "address[]"
        }
      ],
      "payable": false,
      "stateMutability": "nonpayable",
      "type": "constructor"
    },
    {
      "constant": false,
      "inputs": [],
      "name": "stop",
      "outputs": [],
      "payable": false,
      "stateMutability": "nonpayable",
      "type": "function"
    },
    {
      "constant": false,
      "inputs": [],
      "name": "start",
      "outputs": [],
      "payable": false,
      "stateMutability": "nonpayable",
      "type": "function"
    }
  ],
  "bytecode": "0x608060405260008060006101000a81548160ff02191690831515021790555034801561002a57600080fd5b506040516104513803806104518339810180604052602081101561004d57600080fd5b81019080805164010000000081111561006557600080fd5b8281019050602081018481111561007b57600080fd5b815185602082028301116401000000008211171561009857600080fd5b505092919050505060008090505b815181101561012a57600180600084848151811015156100c257fe5b9060200190602002015173ffffffffffffffffffffffffffffffffffffffff1673ffffffffffffffffffffffffffffffffffffffff16815260200190815260200160002060006101000a81548160ff02191690831515021790555080806001019150506100a6565b5060018060003373ffffffffffffffffffffffffffffffffffffffff1673ffffffffffffffffffffffffffffffffffffffff16815260200190815260200160002060006101000a81548160ff021916908315150217905550506102bf806101926000396000f3fe60806040526004361061004c576000357c0100000000000000000000000000000000000000000000000000000000900463ffffffff16806307da68f514610051578063be9a655514610068575b600080fd5b34801561005d57600080fd5b5061006661007f565b005b34801561007457600080fd5b5061007d610189565b005b60011515600160003373ffffffffffffffffffffffffffffffffffffffff1673ffffffffffffffffffffffffffffffffffffffff16815260200190815260200160002060009054906101000a900460ff16151514151561016d576040517f08c379a00000000000000000000000000000000000000000000000000000000081526004018080602001828103825260328152602001807f6f6e6c79206175746f72697a65642073746f70706572732063616e207065726681526020017f6f726d2074686973206f7065726174696f6e000000000000000000000000000081525060400191505060405180910390fd5b60016000806101000a81548160ff021916908315150217905550565b60011515600160003373ffffffffffffffffffffffffffffffffffffffff1673ffffffffffffffffffffffffffffffffffffffff16815260200190815260200160002060009054906101000a900460ff161515141515610277576040517f08c379a00000000000000000000000000000000000000000000000000000000081526004018080602001828103825260328152602001807f6f6e6c79206175746f72697a65642073746f70706572732063616e207065726681526020017f6f726d2074686973206f7065726174696f6e000000000000000000000000000081525060400191505060405180910390fd5b60008060006101000a81548160ff02191690831515021790555056fea165627a7a723058204980c3b68c67d3452cdbf8645f2b9eb2bc0632e949b1e82172561d6b5928cfdb0029",
  "source": "pragma solidity ^0.5.0;\n\ncontract EmergencyStoppable {\n  bool private stopped = false;\n  mapping (address => bool) private isStopper;\n\n  constructor(address[] memory stoppers) public {\n    for (uint i = 0; i < stoppers.length; i++) {\n        isStopper[stoppers[i]] = true;\n    }\n\n    isStopper[msg.sender] = true;\n  }\n\n  modifier onlyStopper() {\n    require(isStopper[msg.sender] == true, 'only autorized stoppers can perform this operation');\n    _;\n  }\n\n  modifier stopInEmergency { require(!stopped, 'This action cant be performed at the moment'); _; }\n  modifier onlyInEmergency { require(stopped, 'This action can only be performed in an emergency'); _; }\n\n  function stop() onlyStopper public {\n    stopped = true;\n  }\n\n  function start() onlyStopper public {\n    stopped = false;\n  }\n}\n",
  "sourcePath": "/home/vagrant/project/contracts/EmergencyStoppable.sol",
  "compiler": {
    "name": "solc",
    "version": "0.5.0+commit.1d4f565a.Emscripten.clang"
  },
  "schemaVersion": "3.0.1",
  "updatedAt": "2019-01-25T16:41:37.106Z",
  "devdoc": {
    "methods": {}
  },
  "userdoc": {
    "methods": {}
  }
}