{
  "contractName": "Marketplace",
  "abi": [
    {
      "constant": true,
      "inputs": [
        {
          "name": "",
          "type": "address"
        }
      ],
      "name": "storeOwners",
      "outputs": [
        {
          "name": "",
          "type": "bool"
        }
      ],
      "payable": false,
      "stateMutability": "view",
      "type": "function",
      "signature": "0x057cc2a1"
    },
    {
      "constant": false,
      "inputs": [],
      "name": "stop",
      "outputs": [],
      "payable": false,
      "stateMutability": "nonpayable",
      "type": "function",
      "signature": "0x07da68f5"
    },
    {
      "constant": true,
      "inputs": [
        {
          "name": "",
          "type": "address"
        },
        {
          "name": "",
          "type": "uint256"
        }
      ],
      "name": "ownerStorefrontIds",
      "outputs": [
        {
          "name": "",
          "type": "uint256"
        }
      ],
      "payable": false,
      "stateMutability": "view",
      "type": "function",
      "signature": "0x1754eccf"
    },
    {
      "constant": true,
      "inputs": [
        {
          "name": "",
          "type": "address"
        }
      ],
      "name": "isAdmin",
      "outputs": [
        {
          "name": "",
          "type": "bool"
        }
      ],
      "payable": false,
      "stateMutability": "view",
      "type": "function",
      "signature": "0x24d7806c"
    },
    {
      "constant": false,
      "inputs": [],
      "name": "start",
      "outputs": [],
      "payable": false,
      "stateMutability": "nonpayable",
      "type": "function",
      "signature": "0xbe9a6555"
    },
    {
      "inputs": [
        {
          "name": "_admins",
          "type": "address[]"
        }
      ],
      "payable": false,
      "stateMutability": "nonpayable",
      "type": "constructor",
      "signature": "constructor"
    },
    {
      "constant": false,
      "inputs": [
        {
          "name": "storeOwner",
          "type": "address"
        }
      ],
      "name": "addStoreOwner",
      "outputs": [],
      "payable": false,
      "stateMutability": "nonpayable",
      "type": "function",
      "signature": "0x9adeb5f1"
    },
    {
      "constant": false,
      "inputs": [
        {
          "name": "name",
          "type": "string"
        }
      ],
      "name": "addStorefront",
      "outputs": [
        {
          "name": "",
          "type": "uint256"
        }
      ],
      "payable": false,
      "stateMutability": "nonpayable",
      "type": "function",
      "signature": "0xf054bff7"
    },
    {
      "constant": true,
      "inputs": [
        {
          "name": "_id",
          "type": "uint256"
        }
      ],
      "name": "getStorefront",
      "outputs": [
        {
          "name": "id",
          "type": "uint256"
        },
        {
          "name": "name",
          "type": "string"
        },
        {
          "name": "skus",
          "type": "uint256[]"
        }
      ],
      "payable": false,
      "stateMutability": "view",
      "type": "function",
      "signature": "0x09b5e000"
    },
    {
      "constant": true,
      "inputs": [
        {
          "name": "storeOwner",
          "type": "address"
        }
      ],
      "name": "getOwnerStorefrontCount",
      "outputs": [
        {
          "name": "",
          "type": "uint256"
        }
      ],
      "payable": false,
      "stateMutability": "view",
      "type": "function",
      "signature": "0x16cb36da"
    },
    {
      "constant": true,
      "inputs": [],
      "name": "getStorefrontCount",
      "outputs": [
        {
          "name": "",
          "type": "uint256"
        }
      ],
      "payable": false,
      "stateMutability": "view",
      "type": "function",
      "signature": "0xbf438110"
    },
    {
      "constant": false,
      "inputs": [
        {
          "name": "_storefrontId",
          "type": "uint256"
        },
        {
          "name": "name",
          "type": "string"
        },
        {
          "name": "count",
          "type": "uint256"
        },
        {
          "name": "price",
          "type": "uint256"
        }
      ],
      "name": "addProduct",
      "outputs": [
        {
          "name": "",
          "type": "uint256"
        }
      ],
      "payable": false,
      "stateMutability": "nonpayable",
      "type": "function",
      "signature": "0xc27ed2a2"
    },
    {
      "constant": true,
      "inputs": [
        {
          "name": "_sku",
          "type": "uint256"
        }
      ],
      "name": "getProduct",
      "outputs": [
        {
          "name": "sku",
          "type": "uint256"
        },
        {
          "name": "name",
          "type": "string"
        },
        {
          "name": "price",
          "type": "uint256"
        },
        {
          "name": "count",
          "type": "uint256"
        },
        {
          "name": "storefrontId",
          "type": "uint256"
        }
      ],
      "payable": false,
      "stateMutability": "view",
      "type": "function",
      "signature": "0xb9db15b4"
    },
    {
      "constant": false,
      "inputs": [
        {
          "name": "_sku",
          "type": "uint256"
        }
      ],
      "name": "deleteProduct",
      "outputs": [],
      "payable": false,
      "stateMutability": "nonpayable",
      "type": "function",
      "signature": "0xed90c7b7"
    },
    {
      "constant": false,
      "inputs": [
        {
          "name": "_sku",
          "type": "uint256"
        },
        {
          "name": "price",
          "type": "uint256"
        }
      ],
      "name": "updateProductPrice",
      "outputs": [],
      "payable": false,
      "stateMutability": "nonpayable",
      "type": "function",
      "signature": "0x9c3bddb2"
    },
    {
      "constant": false,
      "inputs": [
        {
          "name": "_sku",
          "type": "uint256"
        },
        {
          "name": "count",
          "type": "uint256"
        }
      ],
      "name": "updateProductCount",
      "outputs": [],
      "payable": false,
      "stateMutability": "nonpayable",
      "type": "function",
      "signature": "0x5894db03"
    },
    {
      "constant": false,
      "inputs": [
        {
          "name": "_sku",
          "type": "uint256"
        },
        {
          "name": "quantity",
          "type": "uint256"
        }
      ],
      "name": "buyProduct",
      "outputs": [],
      "payable": true,
      "stateMutability": "payable",
      "type": "function",
      "signature": "0x53b62866"
    },
    {
      "constant": true,
      "inputs": [],
      "name": "balance",
      "outputs": [
        {
          "name": "",
          "type": "uint256"
        }
      ],
      "payable": false,
      "stateMutability": "view",
      "type": "function",
      "signature": "0xb69ef8a8"
    },
    {
      "constant": false,
      "inputs": [
        {
          "name": "amount",
          "type": "uint256"
        }
      ],
      "name": "withdraw",
      "outputs": [],
      "payable": false,
      "stateMutability": "nonpayable",
      "type": "function",
      "signature": "0x2e1a7d4d"
    }
  ],
  "bytecode": "0x60806040526000600360006101000a81548160ff0219169083151502179055503480156200002c57600080fd5b506040516200265538038062002655833981018060405260208110156200005257600080fd5b8101908080516401000000008111156200006b57600080fd5b828101905060208101848111156200008257600080fd5b8151856020820283011164010000000082111715620000a057600080fd5b50509291905050508081336000806101000a81548173ffffffffffffffffffffffffffffffffffffffff021916908373ffffffffffffffffffffffffffffffffffffffff16021790555060008090505b8151811015620001785760016002600084848151811015156200010f57fe5b9060200190602002015173ffffffffffffffffffffffffffffffffffffffff1673ffffffffffffffffffffffffffffffffffffffff16815260200190815260200160002060006101000a81548160ff0219169083151502179055508080600101915050620000f0565b506001600260003373ffffffffffffffffffffffffffffffffffffffff1673ffffffffffffffffffffffffffffffffffffffff16815260200190815260200160002060006101000a81548160ff0219169083151502179055508060019080519060200190620001e9929190620002da565b505060008090505b8151811015620002795760016004600084848151811015156200021057fe5b9060200190602002015173ffffffffffffffffffffffffffffffffffffffff1673ffffffffffffffffffffffffffffffffffffffff16815260200190815260200160002060006101000a81548160ff0219169083151502179055508080600101915050620001f1565b506001600460003373ffffffffffffffffffffffffffffffffffffffff1673ffffffffffffffffffffffffffffffffffffffff16815260200190815260200160002060006101000a81548160ff0219169083151502179055505050620003af565b82805482825590600052602060002090810192821562000356579160200282015b82811115620003555782518260006101000a81548173ffffffffffffffffffffffffffffffffffffffff021916908373ffffffffffffffffffffffffffffffffffffffff16021790555091602001919060010190620002fb565b5b50905062000365919062000369565b5090565b620003ac91905b80821115620003a857600081816101000a81549073ffffffffffffffffffffffffffffffffffffffff02191690555060010162000370565b5090565b90565b61229680620003bf6000396000f3fe6080604052600436106100fc576000357c0100000000000000000000000000000000000000000000000000000000900463ffffffff168063057cc2a11461010157806307da68f51461016a57806309b5e0001461018157806316cb36da146102845780631754eccf146102e957806324d7806c146103585780632e1a7d4d146103c157806353b62866146103fc5780635894db03146104345780639adeb5f1146104795780639c3bddb2146104ca578063b69ef8a81461050f578063b9db15b41461053a578063be9a65551461060a578063bf43811014610621578063c27ed2a21461064c578063ed90c7b714610704578063f054bff71461073f575b600080fd5b34801561010d57600080fd5b506101506004803603602081101561012457600080fd5b81019080803573ffffffffffffffffffffffffffffffffffffffff1690602001909291905050506107d9565b604051808215151515815260200191505060405180910390f35b34801561017657600080fd5b5061017f6107f9565b005b34801561018d57600080fd5b506101ba600480360360208110156101a457600080fd5b8101908080359060200190929190505050610904565b604051808481526020018060200180602001838103835285818151815260200191508051906020019080838360005b838110156102045780820151818401526020810190506101e9565b50505050905090810190601f1680156102315780820380516001836020036101000a031916815260200191505b50838103825284818151815260200191508051906020019060200280838360005b8381101561026d578082015181840152602081019050610252565b505050509050019550505050505060405180910390f35b34801561029057600080fd5b506102d3600480360360208110156102a757600080fd5b81019080803573ffffffffffffffffffffffffffffffffffffffff169060200190929190505050610a41565b6040518082815260200191505060405180910390f35b3480156102f557600080fd5b506103426004803603604081101561030c57600080fd5b81019080803573ffffffffffffffffffffffffffffffffffffffff16906020019092919080359060200190929190505050610a8d565b6040518082815260200191505060405180910390f35b34801561036457600080fd5b506103a76004803603602081101561037b57600080fd5b81019080803573ffffffffffffffffffffffffffffffffffffffff169060200190929190505050610abd565b604051808215151515815260200191505060405180910390f35b3480156103cd57600080fd5b506103fa600480360360208110156103e457600080fd5b8101908080359060200190929190505050610add565b005b6104326004803603604081101561041257600080fd5b810190808035906020019092919080359060200190929190505050610d54565b005b34801561044057600080fd5b506104776004803603604081101561045757600080fd5b8101908080359060200190929190803590602001909291905050506111e2565b005b34801561048557600080fd5b506104c86004803603602081101561049c57600080fd5b81019080803573ffffffffffffffffffffffffffffffffffffffff1690602001909291905050506112df565b005b3480156104d657600080fd5b5061050d600480360360408110156104ed57600080fd5b8101908080359060200190929190803590602001909291905050506114e3565b005b34801561051b57600080fd5b506105246115e0565b6040518082815260200191505060405180910390f35b34801561054657600080fd5b506105736004803603602081101561055d57600080fd5b810190808035906020019092919050505061167f565b6040518086815260200180602001858152602001848152602001838152602001828103825286818151815260200191508051906020019080838360005b838110156105cb5780820151818401526020810190506105b0565b50505050905090810190601f1680156105f85780820380516001836020036101000a031916815260200191505b50965050505050505060405180910390f35b34801561061657600080fd5b5061061f611834565b005b34801561062d57600080fd5b5061063661193f565b6040518082815260200191505060405180910390f35b34801561065857600080fd5b506106ee6004803603608081101561066f57600080fd5b81019080803590602001909291908035906020019064010000000081111561069657600080fd5b8201836020820111156106a857600080fd5b803590602001918460018302840111640100000000831117156106ca57600080fd5b90919293919293908035906020019092919080359060200190929190505050611949565b6040518082815260200191505060405180910390f35b34801561071057600080fd5b5061073d6004803603602081101561072757600080fd5b8101908080359060200190929190505050611bda565b005b34801561074b57600080fd5b506107c36004803603602081101561076257600080fd5b810190808035906020019064010000000081111561077f57600080fd5b82018360208201111561079157600080fd5b803590602001918460018302840111640100000000831117156107b357600080fd5b9091929391929390505050611ec1565b6040518082815260200191505060405180910390f35b60056020528060005260406000206000915054906101000a900460ff1681565b60011515600460003373ffffffffffffffffffffffffffffffffffffffff1673ffffffffffffffffffffffffffffffffffffffff16815260200190815260200160002060009054906101000a900460ff1615151415156108e7576040517f08c379a00000000000000000000000000000000000000000000000000000000081526004018080602001828103825260328152602001807f6f6e6c79206175746f72697a65642073746f70706572732063616e207065726681526020017f6f726d2074686973206f7065726174696f6e000000000000000000000000000081525060400191505060405180910390fd5b6001600360006101000a81548160ff021916908315150217905550565b600060608060096000858152602001908152602001600020600001549250600960008581526020019081526020016000206001018054600181600116156101000203166002900480601f0160208091040260200160405190810160405280929190818152602001828054600181600116156101000203166002900480156109cc5780601f106109a1576101008083540402835291602001916109cc565b820191906000526020600020905b8154815290600101906020018083116109af57829003601f168201915b5050505050915060096000858152602001908152602001600020600301805480602002602001604051908101604052809291908181526020018280548015610a3357602002820191906000526020600020905b815481526020019060010190808311610a1f575b505050505090509193909250565b6000600660008373ffffffffffffffffffffffffffffffffffffffff1673ffffffffffffffffffffffffffffffffffffffff168152602001908152602001600020805490509050919050565b600660205281600052604060002081815481101515610aa857fe5b90600052602060002001600091509150505481565b60026020528060005260406000206000915054906101000a900460ff1681565b600560003373ffffffffffffffffffffffffffffffffffffffff1673ffffffffffffffffffffffffffffffffffffffff16815260200190815260200160002060009054906101000a900460ff161515610b3557600080fd5b600360009054906101000a900460ff16151515610be0576040517f08c379a000000000000000000000000000000000000000000000000000000000815260040180806020018281038252602b8152602001807f5468697320616374696f6e2063616e7420626520706572666f726d656420617481526020017f20746865206d6f6d656e7400000000000000000000000000000000000000000081525060400191505060405180910390fd5b600760003373ffffffffffffffffffffffffffffffffffffffff1673ffffffffffffffffffffffffffffffffffffffff168152602001908152602001600020548111151515610cbd576040517f08c379a00000000000000000000000000000000000000000000000000000000081526004018080602001828103825260358152602001807f596f7520646f6e74206861766520656e6f75676820666f756e647320746f207081526020017f6572666f726d2074686973206f7065726174696f6e000000000000000000000081525060400191505060405180910390fd5b80600760003373ffffffffffffffffffffffffffffffffffffffff1673ffffffffffffffffffffffffffffffffffffffff168152602001908152602001600020600082825403925050819055503373ffffffffffffffffffffffffffffffffffffffff166108fc829081150290604051600060405180830381858888f19350505050158015610d50573d6000803e3d6000fd5b5050565b600360009054906101000a900460ff16151515610dff576040517f08c379a000000000000000000000000000000000000000000000000000000000815260040180806020018281038252602b8152602001807f5468697320616374696f6e2063616e7420626520706572666f726d656420617481526020017f20746865206d6f6d656e7400000000000000000000000000000000000000000081525060400191505060405180910390fd5b600081111515610e0e57600080fd5b80600b60008481526020019081526020016000206002015410151515610e3357600080fd5b3481600b6000858152602001908152602001600020600301540211151515610e5a57600080fd5b610e626120db565b600b600084815260200190815260200160002060c0604051908101604052908160008201548152602001600182018054600181600116156101000203166002900480601f016020809104026020016040519081016040528092919081815260200182805460018160011615610100020316600290048015610f245780601f10610ef957610100808354040283529160200191610f24565b820191906000526020600020905b815481529060010190602001808311610f0757829003601f168201915b505050505081526020016002820154815260200160038201548152602001600482015481526020016005820154815250509050610f5f612112565b60096000836080015181526020019081526020016000206080604051908101604052908160008201548152602001600182018054600181600116156101000203166002900480601f0160208091040260200160405190810160405280929190818152602001828054600181600116156101000203166002900480156110255780601f10610ffa57610100808354040283529160200191611025565b820191906000526020600020905b81548152906001019060200180831161100857829003601f168201915b505050505081526020016002820160009054906101000a900473ffffffffffffffffffffffffffffffffffffffff1673ffffffffffffffffffffffffffffffffffffffff1673ffffffffffffffffffffffffffffffffffffffff168152602001600382018054806020026020016040519081016040528092919081815260200182805480156110d357602002820191906000526020600020905b8154815260200190600101908083116110bf575b505050505081525050905082600b6000868152602001908152602001600020600301540260076000836040015173ffffffffffffffffffffffffffffffffffffffff1673ffffffffffffffffffffffffffffffffffffffff1681526020019081526020016000206000828254019250508190555082600b600086815260200190815260200160002060020160008282540392505081905550600083600b600087815260200190815260200160002060030154023403905060008111156111db573373ffffffffffffffffffffffffffffffffffffffff166108fc829081150290604051600060405180830381858888f193505050501580156111d9573d6000803e3d6000fd5b505b5050505050565b600560003373ffffffffffffffffffffffffffffffffffffffff1673ffffffffffffffffffffffffffffffffffffffff16815260200190815260200160002060009054906101000a900460ff16151561123a57600080fd5b3373ffffffffffffffffffffffffffffffffffffffff1660096000600b600086815260200190815260200160002060040154815260200190815260200160002060020160009054906101000a900473ffffffffffffffffffffffffffffffffffffffff1673ffffffffffffffffffffffffffffffffffffffff161415156112c057600080fd5b80600b6000848152602001908152602001600020600201819055505050565b600260003373ffffffffffffffffffffffffffffffffffffffff1673ffffffffffffffffffffffffffffffffffffffff16815260200190815260200160002060009054906101000a900460ff1615156113c6576040517f08c379a000000000000000000000000000000000000000000000000000000000815260040180806020018281038252602d8152602001807f6f6e6c7920612076616c69642061646d696e2063616e20706572666f726d207481526020017f686973206f7065726174696f6e0000000000000000000000000000000000000081525060400191505060405180910390fd5b600560008273ffffffffffffffffffffffffffffffffffffffff1673ffffffffffffffffffffffffffffffffffffffff16815260200190815260200160002060009054906101000a900460ff16151515611488576040517f08c379a00000000000000000000000000000000000000000000000000000000081526004018080602001828103825260148152602001807f4f776e657220616c72656164792065786973747300000000000000000000000081525060200191505060405180910390fd5b6001600560008373ffffffffffffffffffffffffffffffffffffffff1673ffffffffffffffffffffffffffffffffffffffff16815260200190815260200160002060006101000a81548160ff02191690831515021790555050565b600560003373ffffffffffffffffffffffffffffffffffffffff1673ffffffffffffffffffffffffffffffffffffffff16815260200190815260200160002060009054906101000a900460ff16151561153b57600080fd5b3373ffffffffffffffffffffffffffffffffffffffff1660096000600b600086815260200190815260200160002060040154815260200190815260200160002060020160009054906101000a900473ffffffffffffffffffffffffffffffffffffffff1673ffffffffffffffffffffffffffffffffffffffff161415156115c157600080fd5b80600b6000848152602001908152602001600020600301819055505050565b6000600560003373ffffffffffffffffffffffffffffffffffffffff1673ffffffffffffffffffffffffffffffffffffffff16815260200190815260200160002060009054906101000a900460ff16151561163a57600080fd5b600760003373ffffffffffffffffffffffffffffffffffffffff1673ffffffffffffffffffffffffffffffffffffffff16815260200190815260200160002054905090565b60006060600080600080600b60008881526020019081526020016000206000015414151515611716576040517f08c379a00000000000000000000000000000000000000000000000000000000081526004018080602001828103825260168152602001807f50726f6475637420646f6573206e6f742065786973740000000000000000000081525060200191505060405180910390fd5b600b6000878152602001908152602001600020600001549450600b60008781526020019081526020016000206001018054600181600116156101000203166002900480601f0160208091040260200160405190810160405280929190818152602001828054600181600116156101000203166002900480156117d95780601f106117ae576101008083540402835291602001916117d9565b820191906000526020600020905b8154815290600101906020018083116117bc57829003601f168201915b50505050509350600b6000878152602001908152602001600020600301549250600b6000878152602001908152602001600020600201549150600b600087815260200190815260200160002060040154905091939590929450565b60011515600460003373ffffffffffffffffffffffffffffffffffffffff1673ffffffffffffffffffffffffffffffffffffffff16815260200190815260200160002060009054906101000a900460ff161515141515611922576040517f08c379a00000000000000000000000000000000000000000000000000000000081526004018080602001828103825260328152602001807f6f6e6c79206175746f72697a65642073746f70706572732063616e207065726681526020017f6f726d2074686973206f7065726174696f6e000000000000000000000000000081525060400191505060405180910390fd5b6000600360006101000a81548160ff021916908315150217905550565b6000600854905090565b6000600560003373ffffffffffffffffffffffffffffffffffffffff1673ffffffffffffffffffffffffffffffffffffffff16815260200190815260200160002060009054906101000a900460ff1615156119a357600080fd5b3373ffffffffffffffffffffffffffffffffffffffff166009600088815260200190815260200160002060020160009054906101000a900473ffffffffffffffffffffffffffffffffffffffff1673ffffffffffffffffffffffffffffffffffffffff16141515611a1357600080fd5b600082111515611a2257600080fd5b7fffffffffffffffffffffffffffffffffffffffffffffffffffffffffffffffff600a5414151515611abc576040517f08c379a000000000000000000000000000000000000000000000000000000000815260040180806020018281038252601d8152602001807f4e6f206d6f72652070726f64756374732063616e20626520616464656400000081525060200191505060405180910390fd5b600a6000815480929190600101919050555085600b6000600a54815260200190815260200160002060040181905550600a54600b6000600a548152602001908152602001600020600001819055508484600b6000600a5481526020019081526020016000206001019190611b31929190612151565b5081600b6000600a5481526020019081526020016000206003018190555082600b6000600a54815260200190815260200160002060020181905550600160096000888152602001908152602001600020600301600a549080600181540180825580915050906001820390600052602060002001600090919290919091505503600b6000600a54815260200190815260200160002060050181905550600a54905095945050505050565b600560003373ffffffffffffffffffffffffffffffffffffffff1673ffffffffffffffffffffffffffffffffffffffff16815260200190815260200160002060009054906101000a900460ff161515611c3257600080fd5b3373ffffffffffffffffffffffffffffffffffffffff1660096000600b600085815260200190815260200160002060040154815260200190815260200160002060020160009054906101000a900473ffffffffffffffffffffffffffffffffffffffff1673ffffffffffffffffffffffffffffffffffffffff16141515611cb857600080fd5b6000600b60008381526020019081526020016000206004015490506000600b6000848152602001908152602001600020600501549050600060096000848152602001908152602001600020600301805490509050600081111515611d84576040517f08c379a00000000000000000000000000000000000000000000000000000000081526004018080602001828103825260208152602001807f53746f726566726f6e74277320534b55206c69737420697320696e76616c696481525060200191505060405180910390fd5b6000806001831115611e41576009600086815260200190815260200160002060030160018403815481101515611db657fe5b90600052602060002001549150816009600087815260200190815260200160002060030185815481101515611de757fe5b90600052602060002001819055506009600086815260200190815260200160002060030184815481101515611e1857fe5b9060005260206000200154905083600b6000838152602001908152602001600020600501819055505b600b6000878152602001908152602001600020600080820160009055600182016000611e6d91906121d1565b6002820160009055600382016000905560048201600090556005820160009055505060096000868152602001908152602001600020600301805480919060019003611eb89190612219565b50505050505050565b6000600560003373ffffffffffffffffffffffffffffffffffffffff1673ffffffffffffffffffffffffffffffffffffffff16815260200190815260200160002060009054906101000a900460ff161515611f1b57600080fd5b7fffffffffffffffffffffffffffffffffffffffffffffffffffffffffffffffff60085414151515611fb5576040517f08c379a00000000000000000000000000000000000000000000000000000000081526004018080602001828103825260208152602001807f4e6f206d6f72652073746f726566726f6e74732063616e20626520616464656481525060200191505060405180910390fd5b600860008154809291906001019190505550600660003373ffffffffffffffffffffffffffffffffffffffff1673ffffffffffffffffffffffffffffffffffffffff16815260200190815260200160002060085490806001815401808255809150509060018203906000526020600020016000909192909190915055506008546009600060085481526020019081526020016000206000018190555082826009600060085481526020019081526020016000206001019190612078929190612151565b503360096000600854815260200190815260200160002060020160006101000a81548173ffffffffffffffffffffffffffffffffffffffff021916908373ffffffffffffffffffffffffffffffffffffffff160217905550600854905092915050565b60c0604051908101604052806000815260200160608152602001600081526020016000815260200160008152602001600081525090565b6080604051908101604052806000815260200160608152602001600073ffffffffffffffffffffffffffffffffffffffff168152602001606081525090565b828054600181600116156101000203166002900490600052602060002090601f016020900481019282601f1061219257803560ff19168380011785556121c0565b828001600101855582156121c0579182015b828111156121bf5782358255916020019190600101906121a4565b5b5090506121cd9190612245565b5090565b50805460018160011615610100020316600290046000825580601f106121f75750612216565b601f0160209004906000526020600020908101906122159190612245565b5b50565b8154818355818111156122405781836000526020600020918201910161223f9190612245565b5b505050565b61226791905b8082111561226357600081600090555060010161224b565b5090565b9056fea165627a7a723058209bdad98a3fbf41339e67d471ab52522ca6cdb3a82d09f7f865408717ab5166b20029",
  "source": "pragma solidity ^0.5.0;\n\ncontract Administrable {\n    address private owner;\n    address[] private admins;\n    mapping(address => bool) public isAdmin;\n\n    /**\n     * Constructor of the contract\n     * @param _admins addresses of accounts allowed to administrate the contract\n     */\n    constructor(address[] memory _admins) public {\n        owner = msg.sender;\n        for (uint i = 0; i < _admins.length; i++) {\n            isAdmin[_admins[i]] = true;\n        }\n\n        isAdmin[msg.sender] = true;\n        admins = _admins;\n    }\n\n    /**\n     * Require sender to be the owner of the contract to continue the execution\n     */\n    modifier onlyOwner() {\n        require(msg.sender == owner, \"only owner can perform this operation\");\n        _;\n    }\n\n    /**\n     * Require sender to be an admin of the contract to continue the execution\n     */\n    modifier onlyAdmin() {\n        require(\n            isAdmin[msg.sender],\n            \"only a valid admin can perform this operation\"\n        );\n        _;\n    }\n}\n\ncontract EmergencyStoppable {\n    bool private stopped = false;\n    mapping(address => bool) private isStopper;\n\n    /**\n     * Constructor of the contract\n     * @param stoppers allowed accounts to stop/start the contract\n     */\n    constructor(address[] memory stoppers) public {\n        for (uint i = 0; i < stoppers.length; i++) {\n            isStopper[stoppers[i]] = true;\n        }\n\n        isStopper[msg.sender] = true;\n    }\n\n    /**\n     * Require only an allowed address to perform an action\n     */\n    modifier onlyStopper() {\n        require(\n          isStopper[msg.sender] == true,\n          \"only autorized stoppers can perform this operation\"\n        );\n        _;\n    }\n\n    /**\n     * This modifier requires that the contract IS NOT STOPPED to continue\n     * the execution of the function\n     */\n    modifier stopInEmergency {\n        require(\n          !stopped,\n          \"This action cant be performed at the moment\"\n        );\n        _;\n    }\n\n    /**\n     * This modifier requires that the contract IS STOPPED to continue\n     * the execution of the function\n     */\n    modifier onlyInEmergency {\n        require(stopped, \"This action can only be performed in an emergency\");\n        _;\n    }\n\n    /**\n     * Stops the contract. Only functions not required to be stopped in\n     * emergency can continue the execution\n     */\n    function stop() onlyStopper public {\n        stopped = true;\n    }\n\n    /**\n     * Starts the contract. All functions but required to execute only in\n     * emergency continue the execution\n     */\n    function start() onlyStopper public {\n        stopped = false;\n    }\n}\n\ncontract Marketplace is Administrable, EmergencyStoppable {\n    mapping(address => bool) public storeOwners;\n    mapping(address => uint[]) public ownerStorefrontIds;\n    mapping(address => uint) private balances;\n\n    struct Storefront {\n        uint id;\n        string name;\n        address storeOwner;\n        uint[] skus;\n    }\n    uint private storefrontsCount;\n    mapping(uint => Storefront) private storefronts;\n\n    struct Product {\n        uint sku;\n        string name;\n        uint count;\n        uint price;\n        uint storefrontId;\n        uint indexInStorefront;\n    }\n    uint private skuCount;\n    mapping(uint => Product) private products;\n\n    /**\n     * Constructor of the contract\n     * @param _admins addresses of the admins of the Marketplace contract\n     */\n    constructor(address[] memory _admins)\n        Administrable(_admins)\n        EmergencyStoppable(_admins)\n        public\n    {\n\n    }\n\n    modifier onlyActiveOwner() {\n        require(storeOwners[msg.sender]);\n        _;\n    }\n\n    /**\n     * Adds a new storefront owner\n     * @param storeOwner the address of the new store owner\n     */\n    function addStoreOwner(address storeOwner) external onlyAdmin {\n        require(!storeOwners[storeOwner], \"Owner already exists\");\n\n        storeOwners[storeOwner] = true;\n    }\n\n    /**\n     * Adds a new storefront\n     * @param name the name of the new storefront\n     * @return the ID of the new storefront\n     */\n    function addStorefront(string calldata name)\n        external\n        onlyActiveOwner\n        returns (uint)\n    {\n        require(\n            storefrontsCount != ((2**256) - 1),\n            \"No more storefronts can be added\"\n        );\n\n        storefrontsCount++;\n        ownerStorefrontIds[msg.sender].push(storefrontsCount);\n        storefronts[storefrontsCount].id = storefrontsCount;\n        storefronts[storefrontsCount].name = name;\n        storefronts[storefrontsCount].storeOwner = msg.sender;\n\n        return storefrontsCount;\n    }\n\n    /**\n     * Gets storefront ID, name and list of product SKUs\n     * @param _id the ID of the storefront information to retrieve\n     * @return ID, name and SKU array of the storefront\n     */\n    function getStorefront(uint _id)\n        external\n        view\n        returns (uint id, string memory name, uint[] memory skus)\n    {\n        id = storefronts[_id].id;\n        name = storefronts[_id].name;\n        skus = storefronts[_id].skus;\n    }\n\n    /**\n     * Gets the amount of storefronts owned by an store owner\n     * @param storeOwner the address of the store owner count required\n     * @return the amount of storefronts of the specified store owner\n     */\n    function getOwnerStorefrontCount(address storeOwner)\n        external\n        view\n        returns (uint)\n    {\n        return ownerStorefrontIds[storeOwner].length;\n    }\n\n    /**\n     * @return the total amount of all storefronts of all owners\n     */\n    function getStorefrontCount() external view returns (uint) {\n        return storefrontsCount;\n    }\n\n    /**\n     * Adds a new product to a storefront\n     * @param _storefrontId the storefront where to add the product\n     * @param name name of the new product\n     * @param count amount of available products\n     * @param price cost in Wei of the product\n     * @return the ID of the new product\n     */\n    function addProduct(\n        uint _storefrontId,\n        string calldata name,\n        uint count,\n        uint price\n    )\n        external\n        onlyActiveOwner\n        returns (uint)\n    {\n        require(storefronts[_storefrontId].storeOwner == msg.sender);\n        require(price > 0);\n        require(\n            skuCount != ((2**256) - 1),\n            \"No more products can be added\"\n        );\n\n        skuCount++;\n\n        products[skuCount].storefrontId = _storefrontId;\n        products[skuCount].sku = skuCount;\n        products[skuCount].name = name;\n        products[skuCount].price = price;\n        products[skuCount].count = count;\n        products[skuCount].indexInStorefront = storefronts[_storefrontId].skus.push(skuCount) - 1;\n\n        return skuCount;\n    }\n\n    /**\n     * Gets the details of a product\n     * @param _sku the SKU of the product required\n     * @return SKU, name, price and storefront ID of the product\n     */\n    function getProduct(uint _sku)\n        external\n        view\n        returns (\n            uint sku,\n            string memory name,\n            uint price,\n            uint count,\n            uint storefrontId\n        )\n    {\n        require(products[_sku].sku != 0, \"Product does not exist\");\n        sku = products[_sku].sku;\n        name = products[_sku].name;\n        price = products[_sku].price;\n        count = products[_sku].count;\n        storefrontId = products[_sku].storefrontId;\n    }\n\n    /**\n     * Deletes a product\n     * @param _sku the SKU of the product to remove\n     */\n    function deleteProduct(uint _sku) external onlyActiveOwner {\n        require(\n            storefronts[products[_sku].storefrontId].storeOwner == msg.sender\n        );\n\n        // Storefront of the product to delete\n        uint storefrontId = products[_sku].storefrontId;\n        // Index of the product to delete in storefront's SKUs array\n        uint index = products[_sku].indexInStorefront;\n        // Length of the storefront's SKU array\n        uint skusLength = storefronts[storefrontId].skus.length;\n\n        require(skusLength > 0, \"Storefront's SKU list is invalid\");\n\n        // For the array of SKUs in storefront we need to move the last element\n        // of the array to the index of the product beign removed\n        uint lastProductIndex;\n        uint lastProductSku;\n        if (skusLength > 1) {\n            // Get the last product index\n            lastProductIndex = storefronts[storefrontId].skus[skusLength - 1];\n            // Copy it to the index of the product that is being removed\n            // from the storefront\n            storefronts[storefrontId].skus[index] = lastProductIndex;\n            // Get the replacing product SKU\n            lastProductSku = storefronts[storefrontId].skus[index];\n            // Update products indexInStorefront to its new index in storefornt\n            // SKUs array\n            products[lastProductSku].indexInStorefront = index;\n        }\n\n        // Delete preduct from mapping\n        delete products[_sku];\n        // Remove last product index (already moved to its new place) by\n        // decrementing storefront SKUs array length by one\n        storefronts[storefrontId].skus.length--;\n    }\n\n    /**\n     * Updates product price\n     * @param _sku the SKU of the product to update\n     * @param price the new price of the product\n     */\n    function updateProductPrice(uint _sku, uint price)\n        external\n        onlyActiveOwner\n    {\n        require(\n            storefronts[products[_sku].storefrontId].storeOwner == msg.sender\n        );\n\n        products[_sku].price = price;\n    }\n\n    /**\n     * Updates product count\n     * @param _sku the SKU of the product to update\n     * @param count the new count of the product\n     */\n    function updateProductCount(uint _sku, uint count)\n        external\n        onlyActiveOwner\n    {\n        require(\n            storefronts[products[_sku].storefrontId].storeOwner == msg.sender\n        );\n\n        products[_sku].count = count;\n    }\n\n    /**\n     * Buy a product, incremente store owner's balance by price and quantity,\n     * decrement products count by quantity\n     * @param _sku the SKU of the product being bought\n     * @param quantity the desired amount of the product\n     */\n    function buyProduct(uint _sku, uint quantity)\n        external\n        payable\n        stopInEmergency\n    {\n        require(quantity > 0);\n        require(products[_sku].count >= quantity);\n        require(products[_sku].price * quantity <= msg.value);\n\n        Product memory product = products[_sku];\n        Storefront memory storefront = storefronts[product.storefrontId];\n\n        balances[storefront.storeOwner] += products[_sku].price * quantity;\n        products[_sku].count -= quantity;\n\n        uint toRefund = msg.value - products[_sku].price * quantity;\n        if (toRefund > 0) {\n          msg.sender.transfer(toRefund);\n        }\n    }\n\n    /**\n     * Get the balance of the sender (it has to be a store owner)\n     * @return the balance of the sender\n     */\n    function balance() external view onlyActiveOwner returns(uint) {\n        return balances[msg.sender];\n    }\n\n    /**\n     * Withdraw an amount of ether from it's balance (it has to be a store owner)\n     * @param amount the amount of ether in Wei to withdraw\n     */\n    function withdraw(uint amount) external onlyActiveOwner stopInEmergency {\n        require(\n            amount <= balances[msg.sender],\n            \"You dont have enough founds to perform this operation\"\n        );\n\n        balances[msg.sender] -= amount;\n        msg.sender.transfer(amount);\n    }\n}\n",
  "sourcePath": "/home/vagrant/project/contracts/Marketplace.sol",
  "compiler": {
    "name": "solc",
    "version": "0.5.0+commit.1d4f565a.Emscripten.clang"
  },
  "schemaVersion": "3.0.1",
  "updatedAt": "2019-01-27T16:30:29.677Z",
  "devdoc": {
    "methods": {
      "addProduct(uint256,string,uint256,uint256)": {
        "params": {
          "_storefrontId": "the storefront where to add the product",
          "count": "amount of available products",
          "name": "name of the new product",
          "price": "cost in Wei of the product"
        },
        "return": "the ID of the new product"
      },
      "addStoreOwner(address)": {
        "params": {
          "storeOwner": "the address of the new store owner"
        }
      },
      "addStorefront(string)": {
        "params": {
          "name": "the name of the new storefront"
        },
        "return": "the ID of the new storefront"
      },
      "balance()": {
        "return": "the balance of the sender"
      },
      "buyProduct(uint256,uint256)": {
        "params": {
          "_sku": "the SKU of the product being bought",
          "quantity": "the desired amount of the product"
        }
      },
      "constructor": {
        "params": {
          "_admins": "addresses of the admins of the Marketplace contract"
        }
      },
      "deleteProduct(uint256)": {
        "params": {
          "_sku": "the SKU of the product to remove"
        }
      },
      "getOwnerStorefrontCount(address)": {
        "params": {
          "storeOwner": "the address of the store owner count required"
        },
        "return": "the amount of storefronts of the specified store owner"
      },
      "getProduct(uint256)": {
        "params": {
          "_sku": "the SKU of the product required"
        },
        "return": "SKU, name, price and storefront ID of the product"
      },
      "getStorefront(uint256)": {
        "params": {
          "_id": "the ID of the storefront information to retrieve"
        },
        "return": "ID, name and SKU array of the storefront"
      },
      "getStorefrontCount()": {
        "return": "the total amount of all storefronts of all owners"
      },
      "updateProductCount(uint256,uint256)": {
        "params": {
          "_sku": "the SKU of the product to update",
          "count": "the new count of the product"
        }
      },
      "updateProductPrice(uint256,uint256)": {
        "params": {
          "_sku": "the SKU of the product to update",
          "price": "the new price of the product"
        }
      },
      "withdraw(uint256)": {
        "params": {
          "amount": "the amount of ether in Wei to withdraw"
        }
      }
    }
  },
  "userdoc": {
    "methods": {
      "addProduct(uint256,string,uint256,uint256)": {
        "notice": "Adds a new product to a storefront"
      },
      "addStoreOwner(address)": {
        "notice": "Adds a new storefront owner"
      },
      "addStorefront(string)": {
        "notice": "Adds a new storefront"
      },
      "balance()": {
        "notice": "Get the balance of the sender (it has to be a store owner)"
      },
      "buyProduct(uint256,uint256)": {
        "notice": "Buy a product, incremente store owner's balance by price and quantity, decrement products count by quantity"
      },
      "constructor": "Constructor of the contract",
      "deleteProduct(uint256)": {
        "notice": "Deletes a product"
      },
      "getOwnerStorefrontCount(address)": {
        "notice": "Gets the amount of storefronts owned by an store owner"
      },
      "getProduct(uint256)": {
        "notice": "Gets the details of a product"
      },
      "getStorefront(uint256)": {
        "notice": "Gets storefront ID, name and list of product SKUs"
      },
      "start()": {
        "notice": "Starts the contract. All functions but required to execute only in emergency continue the execution"
      },
      "stop()": {
        "notice": "Stops the contract. Only functions not required to be stopped in emergency can continue the execution"
      },
      "updateProductCount(uint256,uint256)": {
        "notice": "Updates product count"
      },
      "updateProductPrice(uint256,uint256)": {
        "notice": "Updates product price"
      },
      "withdraw(uint256)": {
        "notice": "Withdraw an amount of ether from it's balance (it has to be a store owner)"
      }
    }
  }
}